:020000040000FA
:04000000AEEF3EF031
:107D5C000001D0EF3EF0026E8B928B8002C08CFF44
:107D6C008B828B92030E016E980EE82EFED7012E9D
:107D7C00FCD712000F0EC16E000E956E949094926B
:107D8C00949C948E93909392939493869388938AD5
:107D9C00938C1200C0EC3EF021EC3FF082AE03D08D
:107DAC00106A102A01D0106A1050116E126A11500C
:107DBC001210D8A406D05AEC3FF0136E1350B1EC4D
:107DCC003EF0AAEC3FF0146E780E1418D8B4E6D737
:107DDC001450F2EC3EF0E2D7036E8B8CEE0E00D01A
:107DEC0000D0E82EFCD78B9CEE0E00D000D0E82EF5
:107DFC00FCD7000E026E000E016E03B002D08B9CFD
:107E0C0001D08B8CD8900330036EEE0E00D000D0D6
:107E1C00E82EFCD7014A022A02BEEFD7025004E139
:107E2C00080E015CD8A0E9D78B8CEE0E00D000D0E8
:107E3C00E82EFCD712000B0E026E260E016E5E0EA3
:107E4C00E82EFED7012EFCD7022EFAD78B928B9000
:107E5C00300E8C6E8B828B92020E026E040E016EB3
:107E6C00BA0EE82EFED7012EFCD7022EFAD700D080
:107E7C000E0E8C6E8B828B92020E026E040E016EB5
:107E8C00BA0EE82EFED7012EFCD7022EFAD700D060
:107E9C00010E8C6E8B828B92030E016E980EE82E67
:107EAC00FED7012EFCD71200000E0A6E070E096ECB
:107EBC00000E0F6EA60E00D0E82EFDD700D0EE0EF1
:107ECC0000D000D0E82EFCD7000E0C6E000E0B6E0E
:107EDC00010E0924D96E000E0A20DA6E82AE02D091
:107EEC00010E01D0000EDF6E0906D8A00A06E70EBF
:107EFC0000D000D0E82EFCD700D000F00B4A0C2AA2
:107F0C000CBEE6D70C5004E1080E0B5CD8A0E0D7F1
:107F1C00000E0E6E000E0D6E0F500F240F6E010E24
:107F2C000D24D96E000E0E20DA6EDF500F240F6E6A
:107F3C000D4A0E2A0EBEF0D70E5004E1080E0D5C51
:107F4C00D8A0EAD70F5012008A808A928A9481A610
:107F5C0004D081B6FED7310E120081A804D081B8AE
:107F6C00FED7340E120081AA04D081BAFED7370E88
:107F7C00120081AC04D081BCFED72A0E12008A906C
:107F8C008A828A9481A604D081B6FED7320E120062
:107F9C0081A804D081B8FED7350E120081AA04D076
:107FAC0081BAFED7380E120081AC04D081BCFED74A
:107FBC00300E12008A908A928A8481A604D081B6EF
:107FCC00FED7330E120081A804D081B8FED7360E2E
:107FDC00120081AA04D081BAFED7390E120081ACEE
:107FEC0004D081BCFED7230E12008A908A928A9408
:047FFC00780E1200E9
:020000040020DA
:08000000FFFFFFFFFFFFFFFF00
:020000040030CA
:0E00000000051F1FFF8385FF0FC00FE00F409C
:00000001FF
