:020000040000FA
:04000000E3EF3EF0FC
:107DC6000001EDEF3EF00F0EC16E949094829290FA
:107DD60092821200E6EC3EF08B80898080B206D05B
:107DE600B0EC3FF0106E105002EC3FF082B2F6D7C6
:107DF60060EC3FF0106E105031EC3FF0EFD7036EA1
:107E06008B80EE0E00D000D0E82EFCD78B90EE0EC5
:107E160000D000D0E82EFCD7000E026E000E016ED8
:107E260003B002D08B9001D08B80D8900330036EC4
:107E3600EE0E00D000D0E82EFCD7014A022A02BE80
:107E4600EFD7025004E1080E015CD8A0E9D78B8079
:107E5600EE0E00D000D0E82EFCD71200036E89800B
:107E6600EE0E00D000D0E82EFCD78990EE0E00D0A2
:107E760000D0E82EFCD7000E026E000E016E03B095
:107E860002D0899001D08980D8900330036EEE0E1F
:107E960000D000D0E82EFCD7014A022A02BEEFD756
:107EA600025004E1080E015CD8A0E9D78980EE0EE5
:107EB60000D000D0E82EFCD71200000E0A6E070E86
:107EC600096E000E0F6EA60E00D0E82EFDD700D06C
:107ED600EE0E00D000D0E82EFCD7000E0C6E000E81
:107EE6000B6E010E0924D96E000E0A20DA6E82A2EC
:107EF60002D0010E01D0000EDF6E0906D8A00A06D8
:107F0600E70E00D000D0E82EFCD700D000F00B4AD8
:107F16000C2A0CBEE6D70C5004E1080E0B5CD8A068
:107F2600E0D7000E0E6E000E0D6E0F500F240F6E72
:107F3600010E0D24D96E000E0E20DA6EDF500F24CE
:107F46000F6E0D4A0E2A0EBEF0D70E5004E1080E33
:107F56000D5CD8A0EAD70F501200000E0A6E070E6D
:107F6600096E000E0F6EA60E00D0E82EFDD700D0CB
:107F7600EE0E00D000D0E82EFCD7000E0C6E000EE0
:107F86000B6E010E0924D96E000E0A20DA6E80A24D
:107F960002D0010E01D0000EDF6E0906D8A00A0637
:107FA600E70E00D000D0E82EFCD700D000F00B4A38
:107FB6000C2A0CBEE6D70C5004E1080E0B5CD8A0C8
:107FC600E0D7000E0E6E000E0D6E0F500F240F6ED2
:107FD600010E0D24D96E000E0E20DA6EDF500F242E
:107FE6000F6E0D4A0E2A0EBEF0D70E5004E1080E93
:0A7FF6000D5CD8A0EAD70F5012006E
:020000040020DA
:08000000FFFFFFFFFFFFFFFF00
:020000040030CA
:0E00000000051F1FFF8385FF0FC00FE00F409C
:00000001FF
