:020000040000FA
:0400000047EF3FF097
:107E02000EEC3FF07AEC3FF0FDD7010002000400D7
:107E1200080010002000400080000F0EC16E000E0E
:107E2200956E000E936E000E946E1200C300BD009C
:107E32005A007E005A006600BD00C300C300BD00A8
:107E42005A007E005A006600BD00C300C300BD0098
:107E52005A007E005A006600BD00C300FF00030006
:107E62000100CE00CE0001000300FF00FF0003006E
:107E72000100CE00CE0001000300FF00FF0003005E
:107E82000100CE00CE0001000300FF002E0EF66EB0
:107E92007E0EF76E000EF86E01EE00F010EE30F07E
:107EA2000900F5CFEEFFE550E150FAE10C0EF66E57
:107EB2007E0EF76E000EF86E00EED6F010EE10F0A9
:107EC2000900F5CFEEFFE550E150FAE15E0EF66EE5
:107ED2007E0EF76E000EF86E00EE01F010EE30F03E
:107EE2000900F5CFEEFFE550E150FAE1000101EFA4
:107EF2003FF020EED6F010EEC0F00F0EDBCFE3FF26
:107F0200E806FCE220EE01F010EE60F02F0EDBCF6F
:107F1200E3FFE806FCE221EE00F010EE90F02F0EF7
:107F2200DBCFE3FFE806FCE2000E0001D36F000E98
:107F3200D26F000ED16F000ED06F000ED56F000E03
:107F4200D46FD890D435D96ED535DA6EC00ED92615
:107F5200000EDA22DF508C6ED251D425316ED3510D
:107F6200D521326ED89031363236900E3124D96E08
:107F7200000E3220DA6EDF508A6ED251D425316E75
:107F8200D351D521326ED89031363236900E31240B
:107F9200D96E000E3220DA6EDF508B6E030E316E18
:107FA200980EE82EFED7312EFCD70001D44BD52BEC
:107FB200D5BFC7D7D55104E1080ED45DD8A0C1D72B
:107FC200D04BD12BD1BFB9D7D15104E10A0ED05D2C
:107FD200D8A0B3D7270E316EF50EE82EFED7312E7C
:107FE200FCD700F00001D24BD32BD3BFA2D7D35181
:0E7FF20005E1100ED25DD8B012009BD7120030
:020000040020DA
:08000000FFFFFFFFFFFFFFFF00
:020000040030CA
:0E00000000051F1FFF8385FF0FC00FE00F409C
:00000001FF
