:020000040000FA
:04000000C1EF3CF020
:107982000001F1EF3CF08B928B9001C08CFF8B8257
:107992008B92030E036E980EE82EFED7032EFCD7B1
:1079A2001200026E8B928B8002C08CFF8B828B92B4
:1079B200030E016E980EE82EFED7012EFCD71200A0
:1079C2000F0EC16E000E956E94909492949C949EAC
:1079D20093909392939493869388938A938C1200B4
:1079E200E1EC3CF006EC3DF044EC3DF033EC3EF0D3
:1079F200BAEC3DF001C007F002C008F007C004F085
:107A020008C005F0B2EC3EF0F3D70B0E026E260E64
:107A1200016E5E0EE82EFED7012EFCD7022EFAD79B
:107A22008B928B90380E8C6E8B828B92020E026E32
:107A3200040E016EBA0EE82EFED7012EFCD7022EDE
:107A4200FAD700D00E0E8C6E8B828B92020E026ED3
:107A5200040E016EBA0EE82EFED7012EFCD7022EBE
:107A6200FAD700D0010E8C6E8B828B92020E026EC0
:107A7200040E016EBA0EE82EFED7012EFCD7022E9E
:107A8200FAD700D01200000E026E810E016EC4EC15
:107A92003CF04D0ED2EC3CF0000E026E820E016EF6
:107AA200C4EC3CF04F0ED2EC3CF0000E026E830EA2
:107AB200016EC4EC3CF0540ED2EC3CF0000E026EAF
:107AC200840E016EC4EC3CF04F0ED2EC3CF0000E82
:107AD200026E850E016EC4EC3CF0520ED2EC3CF00C
:107AE200000E026E860E016EC4EC3CF0200ED2EC4B
:107AF2003CF0000E026E870E016EC4EC3CF0500E9C
:107B0200D2EC3CF0000E026E880E016EC4EC3CF02A
:107B1200410ED2EC3CF0000E026E890E016EC4ECF6
:107B22003CF04E0ED2EC3CF0000E026E8A0E016E5C
:107B3200C4EC3CF0200ED2EC3CF0000E026E8B0E38
:107B4200016EC4EC3CF03A0ED2EC3CF0000E026E38
:107B52008E0E016EC4EC3CF0300ED2EC3CF0000E06
:107B6200026E8F0E016EC4EC3CF0300ED2EC3CF093
:107B720012008A808A928A9481A607D081B6FED7A3
:107B8200000E026E010E016E120081A807D081B8AC
:107B9200FED7000E026E040E016E120081AA07D0FB
:107BA20081BAFED7000E026E070E016E120081AC82
:107BB20007D081BCFED7000E026E0A0E016E1200C3
:107BC2008A908A828A9481A607D081B6FED7000E57
:107BD200026E020E016E120081A807D081B8FED794
:107BE200000E026E050E016E120081AA07D081BA44
:107BF200FED7000E026E080E016E120081AC07D095
:107C020081BCFED7000E026E000E016E12008A9039
:107C12008A928A8481A607D081B6FED7000E026EB0
:107C2200030E016E120081A807D081B8FED7000EA4
:107C3200026E060E016E120081AA07D081BAFED72B
:107C4200000E026E090E016E120081AC07D081BCDB
:107C5200FED7000E026E0B0E016E12008A908A92FF
:107C62008A941200000E026EC10E016EC4EC3CF04A
:107C72004D0ED2EC3CF0000E026EC20E016EC4EC50
:107C82003CF04F0ED2EC3CF0000E026EC30E016EC1
:107C9200C4EC3CF0540ED2EC3CF0000E026EC40E6A
:107CA200016EC4EC3CF04F0ED2EC3CF0000E026EC2
:107CB200C50E016EC4EC3CF0520ED2EC3CF0000E4C
:107CC200026EC60E016EC4EC3CF0200ED2EC3CF00B
:107CD200000E026EC70E016EC4EC3CF0540ED2ECE4
:107CE2003CF0000E026EC80E016EC4EC3CF0490E70
:107CF200D2EC3CF0000E026EC90E016EC4EC3CF0F8
:107D02004C0ED2EC3CF0000E026ECA0E016EC4ECB8
:107D12003CF0540ED2EC3CF0000E026ECB0E016E23
:107D2200C4EC3CF0200ED2EC3CF0000E026ECC0E05
:107D3200016EC4EC3CF03A0ED2EC3CF0000E026E46
:107D4200CE0E016EC4EC3CF0300ED2EC3CF0000ED4
:107D5200026ECF0E016EC4EC3CF0300ED2EC3CF061
:107D6200120004040510D8A422D08B9C8B8CC80E60
:107D720000D0E82EFDD78B9C000E026E8D0E016E98
:107D8200C4EC3CF0200ED2EC3CF0000E026E8E0EE3
:107D9200016EC4EC3CF0300ED2EC3CF0000E026EF0
:107DA2008F0E016EC4EC3CF0300ED2EC3CF0040EAF
:107DB20004180510D8A425D08B9C8B8C030E066E5C
:107DC200980EE82EFED7062EFCD78B9C000E026E74
:107DD2008D0E016EC4EC3CF0200ED2EC3CF0000E95
:107DE200026E8E0E016EC4EC3CF0340ED2EC3CF00E
:107DF200000E026E8F0E016EC4EC3CF0350ED2EC1A
:107E02003CF0070E04180510D8A426D08B9C8B8C4E
:107E1200040E066EE40EE82EFED7062EFCD700D026
:107E22008B9C000E026E8D0E016EC4EC3CF0200E97
:107E3200D2EC3CF0000E026E8E0E016EC4EC3CF0F1
:107E4200390ED2EC3CF0000E026E8F0E016EC4ECC5
:107E52003CF0300ED2EC3CF00A0E04180510D8A407
:107E620026D08B9C8B8C070E066E7D0EE82EFED7DD
:107E7200062EFCD700F08B9C000E026E8D0E016E5A
:107E8200C4EC3CF0310ED2EC3CF0000E026E8E0ED1
:107E9200016EC4EC3CF0380ED2EC3CF0000E026EE7
:107EA2008F0E016EC4EC3CF0300ED2EC3CF0030EAF
:107EB20004180510D8A422D08B9E8B8EC80E00D039
:107EC200E82EFDD78B9E000E026ECD0E016EC4EC25
:107ED2003CF0200ED2EC3CF0000E026ECE0E016E93
:107EE200C4EC3CF0300ED2EC3CF0000E026ECF0E31
:107EF200016EC4EC3CF0300ED2EC3CF0060E0418DD
:107F02000510D8A425D08B9E8B8E030E066E980E7C
:107F1200E82EFED7062EFCD78B9E000E026ECD0EEB
:107F2200016EC4EC3CF0200ED2EC3CF0000E026E6E
:107F3200CE0E016EC4EC3CF0340ED2EC3CF0000EDE
:107F4200026ECF0E016EC4EC3CF0350ED2EC3CF06A
:107F5200090E04180510D8A426D08B9E8B8E040E11
:107F6200066EE40EE82EFED7062EFCD700D08B9EBE
:107F7200000E026ECD0E016EC4EC3CF0200ED2EC6F
:107F82003CF0000E026ECE0E016EC4EC3CF0390ED7
:107F9200D2EC3CF0000E026ECF0E016EC4EC3CF04F
:107FA200300ED2EC3CF00B0E04180510D8A41200CF
:107FB2008B9E8B8E070E066E7D0EE82EFED7062E4A
:107FC200FCD700F08B9E000E026ECD0E016EC4EC4B
:107FD2003CF0310ED2EC3CF0000E026ECE0E016E81
:107FE200C4EC3CF0380ED2EC3CF0000E026ECF0E28
:0E7FF200016EC4EC3CF0300ED2EC3CF01200FC
:020000040020DA
:08000000FFFFFFFFFFFFFFFF00
:020000040030CA
:0E00000000051F1FFF8385FF0FC00FE00F409C
:00000001FF
